{
  "contractName": "Resturant",
  "abi": [
    {
      "inputs": [
        {
          "name": "owner",
          "type": "address"
        }
      ],
      "payable": false,
      "stateMutability": "nonpayable",
      "type": "constructor"
    },
    {
      "anonymous": false,
      "inputs": [
        {
          "indexed": false,
          "name": "ordernumber",
          "type": "int256"
        },
        {
          "indexed": false,
          "name": "location",
          "type": "string"
        },
        {
          "indexed": false,
          "name": "mealDesc",
          "type": "string"
        }
      ],
      "name": "order",
      "type": "event"
    },
    {
      "anonymous": false,
      "inputs": [
        {
          "indexed": false,
          "name": "ordernumber",
          "type": "int256"
        }
      ],
      "name": "cancel",
      "type": "event"
    },
    {
      "constant": false,
      "inputs": [
        {
          "name": "description",
          "type": "string"
        },
        {
          "name": "price",
          "type": "uint256"
        }
      ],
      "name": "addMeal",
      "outputs": [],
      "payable": false,
      "stateMutability": "nonpayable",
      "type": "function"
    },
    {
      "constant": false,
      "inputs": [
        {
          "name": "index",
          "type": "uint256"
        }
      ],
      "name": "orderMealByToken",
      "outputs": [],
      "payable": false,
      "stateMutability": "nonpayable",
      "type": "function"
    },
    {
      "constant": false,
      "inputs": [
        {
          "name": "index",
          "type": "uint256"
        },
        {
          "name": "location",
          "type": "string"
        }
      ],
      "name": "orderMealByEther",
      "outputs": [],
      "payable": true,
      "stateMutability": "payable",
      "type": "function"
    },
    {
      "constant": false,
      "inputs": [
        {
          "name": "num",
          "type": "int256"
        }
      ],
      "name": "rate",
      "outputs": [],
      "payable": false,
      "stateMutability": "nonpayable",
      "type": "function"
    },
    {
      "constant": false,
      "inputs": [
        {
          "name": "orderNumber",
          "type": "int256"
        }
      ],
      "name": "cancelOrder",
      "outputs": [],
      "payable": false,
      "stateMutability": "nonpayable",
      "type": "function"
    }
  ],
  "bytecode": "0x60806040526000600155600060025534801561001a57600080fd5b506040516020806107be8339810180604052810190808051906020019092919050505080600560006101000a81548173ffffffffffffffffffffffffffffffffffffffff021916908373ffffffffffffffffffffffffffffffffffffffff160217905550506107308061008e6000396000f30060806040526004361061006d576000357c0100000000000000000000000000000000000000000000000000000000900463ffffffff1680635ab79945146100725780637895d4521461009f5780637de8239e14610105578063a28dd02714610132578063b1ac8eb7146101a5575b600080fd5b34801561007e57600080fd5b5061009d600480360381019080803590602001909291905050506101d2565b005b61010360048036038101908080359060200190929190803590602001908201803590602001908080601f01602080910402602001604051908101604052809392919081815260200183838082843782019150505050505091929192905050506102af565b005b34801561011157600080fd5b506101306004803603810190808035906020019092919050505061050b565b005b34801561013e57600080fd5b506101a3600480360381019080803590602001908201803590602001908080601f01602080910402602001604051908101604052809392919081815260200183838082843782019150505050505091929192908035906020019092919050505061056a565b005b3480156101b157600080fd5b506101d060048036038101908080359060200190929190505050610642565b005b600360003373ffffffffffffffffffffffffffffffffffffffff1673ffffffffffffffffffffffffffffffffffffffff16815260200190815260200160002060009054906101000a900460ff16151561022a57600080fd5b600160008154809291906001019190505550600154816000540181151561024d57fe5b056000819055506000600360003373ffffffffffffffffffffffffffffffffffffffff1673ffffffffffffffffffffffffffffffffffffffff16815260200190815260200160002060006101000a81548160ff02191690831515021790555050565b60006006838154811015156102c057fe5b90600052602060002090600202019050806001015434101515156102e357600080fd5b4260046000600254815260200190815260200160002081905550600260008154809291906001019190505550600560009054906101000a900473ffffffffffffffffffffffffffffffffffffffff1673ffffffffffffffffffffffffffffffffffffffff166108fc349081150290604051600060405180830381858888f19350505050158015610377573d6000803e3d6000fd5b506001600360003373ffffffffffffffffffffffffffffffffffffffff1673ffffffffffffffffffffffffffffffffffffffff16815260200190815260200160002060006101000a81548160ff0219169083151502179055507ff64b719f1b62f215efaf377d93e00becbd3ee2c07663d1aea3fd385ec5d06f566001600254038383600001604051808481526020018060200180602001838103835285818151815260200191508051906020019080838360005b8381101561044657808201518184015260208101905061042b565b50505050905090810190601f1680156104735780820380516001836020036101000a031916815260200191505b508381038252848181546001816001161561010002031660029004815260200191508054600181600116156101000203166002900480156104f55780601f106104ca576101008083540402835291602001916104f5565b820191906000526020600020905b8154815290600101906020018083116104d857829003601f168201915b50509550505050505060405180910390a1505050565b6103844201600460008381526020019081526020016000205414151561053057600080fd5b7f327a22f13fa5faca5e8f4479e4a552bb2f53617c773763bdd260a5ac5b9ddd04816040518082815260200191505060405180910390a150565b610572610645565b600560009054906101000a900473ffffffffffffffffffffffffffffffffffffffff1673ffffffffffffffffffffffffffffffffffffffff163373ffffffffffffffffffffffffffffffffffffffff161415156105ce57600080fd5b604080519081016040528084815260200183815250905060068190806001815401808255809150509060018203906000526020600020906002020160009091929091909150600082015181600001908051906020019061062f92919061065f565b5060208201518160010155505050505050565b50565b604080519081016040528060608152602001600081525090565b828054600181600116156101000203166002900490600052602060002090601f016020900481019282601f106106a057805160ff19168380011785556106ce565b828001600101855582156106ce579182015b828111156106cd5782518255916020019190600101906106b2565b5b5090506106db91906106df565b5090565b61070191905b808211156106fd5760008160009055506001016106e5565b5090565b905600a165627a7a72305820e335bb8423c7f52218b0b54d2d23b5a992343895e71c2eb234d0d54f7ac3bd6a0029",
  "source": "pragma solidity ^0.4.0;\ncontract foodApp {\n    address contract1;\n    function contractAddress() view returns (address){\n    return contract1;\n  }\n\n  function createResturant() {\n    address resturant = new Resturant(msg.sender);\n    contract1 = resturant;\n  }\n}\ncontract Resturant {\n    int rating;\n    int ratersNum =0;\n    int orderNum =0;\n    mapping(address => bool) raters;\n    mapping(int => uint) orders;\n    address manager;\n    struct Meal {\n        string description;\n        uint price;\n    }\n    Meal[] meals;\n    event order(int ordernumber, string location, string mealDesc );\n    event cancel(int ordernumber);\n    constructor(address owner){\n        manager= owner;\n    }\n    \n    function addMeal(string description, uint price) isManager {\n        Meal memory meal = Meal(description,price);\n        meals.push(meal);\n    }\n    \n    modifier isManager {\n        require(msg.sender == manager);\n        _;\n    }\n    \n    function orderMealByToken(uint index){}\n    \n    function orderMealByEther(uint index, string location) payable{\n       Meal meal = meals[index];\n       require(msg.value >= meal.price);\n       orders[orderNum] = now;\n       orderNum++;\n       manager.transfer(msg.value); \n       raters[msg.sender] = true;\n       //we need to send the location info to the resturant\n       emit order(orderNum-1, location, meal.description);\n    }\n    \n    function rate(int num){\n        require(raters[msg.sender]);\n        ratersNum++;\n        rating = (rating+num)/(ratersNum);\n        raters[msg.sender] = false;\n\n    }\n    \n    function cancelOrder(int orderNumber){\n    // we have a problem guys we need to make sure that message sender is \n    //the same person who ordered\n        require(orders[orderNumber] == now+ 15 minutes);\n        emit cancel(orderNumber);\n    }\n    \n}",
  "sourcePath": "/home/bushra/FoodApp/Ethereum/contracts/foodApp.sol",
  "compiler": {
    "name": "solc",
    "version": "0.4.24+commit.e67f0147.Emscripten.clang"
  },
  "schemaVersion": "2.0.1",
  "updatedAt": "2018-09-24T19:33:02.834Z"
}